{
  "_format": "hh-sol-artifact-1",
  "contractName": "LolaBoss",
  "sourceName": "contracts/LolaBoss.sol",
  "abi": [
    {
      "inputs": [],
      "stateMutability": "payable",
      "type": "constructor"
    },
    {
      "anonymous": false,
      "inputs": [
        {
          "indexed": true,
          "internalType": "address",
          "name": "owner",
          "type": "address"
        },
        {
          "indexed": true,
          "internalType": "address",
          "name": "approved",
          "type": "address"
        },
        {
          "indexed": true,
          "internalType": "uint256",
          "name": "tokenId",
          "type": "uint256"
        }
      ],
      "name": "Approval",
      "type": "event"
    },
    {
      "anonymous": false,
      "inputs": [
        {
          "indexed": true,
          "internalType": "address",
          "name": "owner",
          "type": "address"
        },
        {
          "indexed": true,
          "internalType": "address",
          "name": "operator",
          "type": "address"
        },
        {
          "indexed": false,
          "internalType": "bool",
          "name": "approved",
          "type": "bool"
        }
      ],
      "name": "ApprovalForAll",
      "type": "event"
    },
    {
      "anonymous": false,
      "inputs": [
        {
          "indexed": true,
          "internalType": "address",
          "name": "previousOwner",
          "type": "address"
        },
        {
          "indexed": true,
          "internalType": "address",
          "name": "newOwner",
          "type": "address"
        }
      ],
      "name": "OwnershipTransferred",
      "type": "event"
    },
    {
      "anonymous": false,
      "inputs": [
        {
          "indexed": true,
          "internalType": "address",
          "name": "from",
          "type": "address"
        },
        {
          "indexed": true,
          "internalType": "address",
          "name": "to",
          "type": "address"
        },
        {
          "indexed": true,
          "internalType": "uint256",
          "name": "tokenId",
          "type": "uint256"
        }
      ],
      "name": "Transfer",
      "type": "event"
    },
    {
      "inputs": [
        {
          "internalType": "address",
          "name": "to",
          "type": "address"
        },
        {
          "internalType": "uint256",
          "name": "tokenId",
          "type": "uint256"
        }
      ],
      "name": "approve",
      "outputs": [],
      "stateMutability": "nonpayable",
      "type": "function"
    },
    {
      "inputs": [
        {
          "internalType": "address",
          "name": "owner",
          "type": "address"
        }
      ],
      "name": "balanceOf",
      "outputs": [
        {
          "internalType": "uint256",
          "name": "",
          "type": "uint256"
        }
      ],
      "stateMutability": "view",
      "type": "function"
    },
    {
      "inputs": [
        {
          "internalType": "uint256",
          "name": "tokenId",
          "type": "uint256"
        }
      ],
      "name": "getApproved",
      "outputs": [
        {
          "internalType": "address",
          "name": "",
          "type": "address"
        }
      ],
      "stateMutability": "view",
      "type": "function"
    },
    {
      "inputs": [
        {
          "internalType": "address",
          "name": "owner",
          "type": "address"
        },
        {
          "internalType": "address",
          "name": "operator",
          "type": "address"
        }
      ],
      "name": "isApprovedForAll",
      "outputs": [
        {
          "internalType": "bool",
          "name": "",
          "type": "bool"
        }
      ],
      "stateMutability": "view",
      "type": "function"
    },
    {
      "inputs": [],
      "name": "isPublicMintEnabled",
      "outputs": [
        {
          "internalType": "bool",
          "name": "",
          "type": "bool"
        }
      ],
      "stateMutability": "view",
      "type": "function"
    },
    {
      "inputs": [],
      "name": "maxPerWallet",
      "outputs": [
        {
          "internalType": "uint256",
          "name": "",
          "type": "uint256"
        }
      ],
      "stateMutability": "view",
      "type": "function"
    },
    {
      "inputs": [],
      "name": "maxSupply",
      "outputs": [
        {
          "internalType": "uint256",
          "name": "",
          "type": "uint256"
        }
      ],
      "stateMutability": "view",
      "type": "function"
    },
    {
      "inputs": [
        {
          "internalType": "uint256",
          "name": "quantity_",
          "type": "uint256"
        }
      ],
      "name": "mint",
      "outputs": [],
      "stateMutability": "payable",
      "type": "function"
    },
    {
      "inputs": [],
      "name": "mintPrice",
      "outputs": [
        {
          "internalType": "uint256",
          "name": "",
          "type": "uint256"
        }
      ],
      "stateMutability": "view",
      "type": "function"
    },
    {
      "inputs": [],
      "name": "name",
      "outputs": [
        {
          "internalType": "string",
          "name": "",
          "type": "string"
        }
      ],
      "stateMutability": "view",
      "type": "function"
    },
    {
      "inputs": [],
      "name": "owner",
      "outputs": [
        {
          "internalType": "address",
          "name": "",
          "type": "address"
        }
      ],
      "stateMutability": "view",
      "type": "function"
    },
    {
      "inputs": [
        {
          "internalType": "uint256",
          "name": "tokenId",
          "type": "uint256"
        }
      ],
      "name": "ownerOf",
      "outputs": [
        {
          "internalType": "address",
          "name": "",
          "type": "address"
        }
      ],
      "stateMutability": "view",
      "type": "function"
    },
    {
      "inputs": [],
      "name": "renounceOwnership",
      "outputs": [],
      "stateMutability": "nonpayable",
      "type": "function"
    },
    {
      "inputs": [
        {
          "internalType": "address",
          "name": "from",
          "type": "address"
        },
        {
          "internalType": "address",
          "name": "to",
          "type": "address"
        },
        {
          "internalType": "uint256",
          "name": "tokenId",
          "type": "uint256"
        }
      ],
      "name": "safeTransferFrom",
      "outputs": [],
      "stateMutability": "nonpayable",
      "type": "function"
    },
    {
      "inputs": [
        {
          "internalType": "address",
          "name": "from",
          "type": "address"
        },
        {
          "internalType": "address",
          "name": "to",
          "type": "address"
        },
        {
          "internalType": "uint256",
          "name": "tokenId",
          "type": "uint256"
        },
        {
          "internalType": "bytes",
          "name": "_data",
          "type": "bytes"
        }
      ],
      "name": "safeTransferFrom",
      "outputs": [],
      "stateMutability": "nonpayable",
      "type": "function"
    },
    {
      "inputs": [
        {
          "internalType": "address",
          "name": "operator",
          "type": "address"
        },
        {
          "internalType": "bool",
          "name": "approved",
          "type": "bool"
        }
      ],
      "name": "setApprovalForAll",
      "outputs": [],
      "stateMutability": "nonpayable",
      "type": "function"
    },
    {
      "inputs": [
        {
          "internalType": "string",
          "name": "baseTokenUri_",
          "type": "string"
        }
      ],
      "name": "setBaseTokenUri",
      "outputs": [],
      "stateMutability": "nonpayable",
      "type": "function"
    },
    {
      "inputs": [
        {
          "internalType": "bool",
          "name": "isPublicMintEnabled_",
          "type": "bool"
        }
      ],
      "name": "setIsPublicMintEnabled",
      "outputs": [],
      "stateMutability": "nonpayable",
      "type": "function"
    },
    {
      "inputs": [
        {
          "internalType": "bytes4",
          "name": "interfaceId",
          "type": "bytes4"
        }
      ],
      "name": "supportsInterface",
      "outputs": [
        {
          "internalType": "bool",
          "name": "",
          "type": "bool"
        }
      ],
      "stateMutability": "view",
      "type": "function"
    },
    {
      "inputs": [],
      "name": "symbol",
      "outputs": [
        {
          "internalType": "string",
          "name": "",
          "type": "string"
        }
      ],
      "stateMutability": "view",
      "type": "function"
    },
    {
      "inputs": [
        {
          "internalType": "uint256",
          "name": "tokenId_",
          "type": "uint256"
        }
      ],
      "name": "tokenURI",
      "outputs": [
        {
          "internalType": "string",
          "name": "",
          "type": "string"
        }
      ],
      "stateMutability": "view",
      "type": "function"
    },
    {
      "inputs": [],
      "name": "totalSupply",
      "outputs": [
        {
          "internalType": "uint256",
          "name": "",
          "type": "uint256"
        }
      ],
      "stateMutability": "view",
      "type": "function"
    },
    {
      "inputs": [
        {
          "internalType": "address",
          "name": "from",
          "type": "address"
        },
        {
          "internalType": "address",
          "name": "to",
          "type": "address"
        },
        {
          "internalType": "uint256",
          "name": "tokenId",
          "type": "uint256"
        }
      ],
      "name": "transferFrom",
      "outputs": [],
      "stateMutability": "nonpayable",
      "type": "function"
    },
    {
      "inputs": [
        {
          "internalType": "address",
          "name": "newOwner",
          "type": "address"
        }
      ],
      "name": "transferOwnership",
      "outputs": [],
      "stateMutability": "nonpayable",
      "type": "function"
    },
    {
      "inputs": [
        {
          "internalType": "address",
          "name": "",
          "type": "address"
        }
      ],
      "name": "wallentMints",
      "outputs": [
        {
          "internalType": "uint256",
          "name": "",
          "type": "uint256"
        }
      ],
      "stateMutability": "view",
      "type": "function"
    },
    {
      "inputs": [],
      "name": "withdraw",
      "outputs": [],
      "stateMutability": "nonpayable",
      "type": "function"
    },
    {
      "inputs": [],
      "name": "withdrawWallet",
      "outputs": [
        {
          "internalType": "address payable",
          "name": "",
          "type": "address"
        }
      ],
      "stateMutability": "view",
      "type": "function"
    }
  ],
  "bytecode": "0x60806040526040518060400160405280600881526020017f4c6f6c61426f73730000000000000000000000000000000000000000000000008152506040518060400160405280600281526020017f4c41000000000000000000000000000000000000000000000000000000000000815250816000908051906020019062000088929190620001da565b508060019080519060200190620000a1929190620001da565b505050620000c4620000b86200010c60201b60201c565b6200011460201b60201c565b66470de4df82000060078190555060006008819055506103e86009819055506003600a819055506001600b60006101000a81548160ff021916908315150217905550620002ef565b600033905090565b6000600660009054906101000a900473ffffffffffffffffffffffffffffffffffffffff16905081600660006101000a81548173ffffffffffffffffffffffffffffffffffffffff021916908373ffffffffffffffffffffffffffffffffffffffff1602179055508173ffffffffffffffffffffffffffffffffffffffff168173ffffffffffffffffffffffffffffffffffffffff167f8be0079c531659141344cd1fd0a4f28419497f9722a3daafe3b4186f6b6457e060405160405180910390a35050565b828054620001e8906200028a565b90600052602060002090601f0160209004810192826200020c576000855562000258565b82601f106200022757805160ff191683800117855562000258565b8280016001018555821562000258579182015b82811115620002575782518255916020019190600101906200023a565b5b5090506200026791906200026b565b5090565b5b80821115620002865760008160009055506001016200026c565b5090565b60006002820490506001821680620002a357607f821691505b60208210811415620002ba57620002b9620002c0565b5b50919050565b7f4e487b7100000000000000000000000000000000000000000000000000000000600052602260045260246000fd5b61379380620002ff6000396000f3fe60806040526004361061019c5760003560e01c80636817c76c116100ec578063a0712d681161008a578063c87b56dd11610064578063c87b56dd14610593578063d5abeb01146105d0578063e985e9c5146105fb578063f2fde38b146106385761019c565b8063a0712d6814610525578063a22cb46514610541578063b88d4fde1461056a5761019c565b806385d178f4116100c657806385d178f41461047b5780638da5cb5b146104a657806395652cfa146104d157806395d89b41146104fa5761019c565b80636817c76c146103fc57806370a0823114610427578063715018a6146104645761019c565b806318160ddd116101595780633ccfd60b116101335780633ccfd60b1461035457806342842e0e1461036b578063453c2310146103945780636352211e146103bf5761019c565b806318160ddd146102d75780632373ac221461030257806323b872dd1461032b5761019c565b80630116bc2d146101a157806301ffc9a7146101cc57806306fdde0314610209578063081812fc14610234578063095ea7b3146102715780631806ae5b1461029a575b600080fd5b3480156101ad57600080fd5b506101b6610661565b6040516101c39190612a9e565b60405180910390f35b3480156101d857600080fd5b506101f360048036038101906101ee9190612495565b610674565b6040516102009190612a9e565b60405180910390f35b34801561021557600080fd5b5061021e610756565b60405161022b9190612ab9565b60405180910390f35b34801561024057600080fd5b5061025b6004803603810190610256919061252c565b6107e8565b6040516102689190612a1c565b60405180910390f35b34801561027d57600080fd5b5061029860048036038101906102939190612430565b61086d565b005b3480156102a657600080fd5b506102c160048036038101906102bc91906122c5565b610985565b6040516102ce9190612d7b565b60405180910390f35b3480156102e357600080fd5b506102ec61099d565b6040516102f99190612d7b565b60405180910390f35b34801561030e57600080fd5b506103296004803603810190610324919061246c565b6109a3565b005b34801561033757600080fd5b50610352600480360381019061034d919061232a565b610a3c565b005b34801561036057600080fd5b50610369610a9c565b005b34801561037757600080fd5b50610392600480360381019061038d919061232a565b610be9565b005b3480156103a057600080fd5b506103a9610c09565b6040516103b69190612d7b565b60405180910390f35b3480156103cb57600080fd5b506103e660048036038101906103e1919061252c565b610c0f565b6040516103f39190612a1c565b60405180910390f35b34801561040857600080fd5b50610411610cc1565b60405161041e9190612d7b565b60405180910390f35b34801561043357600080fd5b5061044e600480360381019061044991906122c5565b610cc7565b60405161045b9190612d7b565b60405180910390f35b34801561047057600080fd5b50610479610d7f565b005b34801561048757600080fd5b50610490610e07565b60405161049d9190612a37565b60405180910390f35b3480156104b257600080fd5b506104bb610e2d565b6040516104c89190612a1c565b60405180910390f35b3480156104dd57600080fd5b506104f860048036038101906104f391906124e7565b610e57565b005b34801561050657600080fd5b5061050f610ee9565b60405161051c9190612ab9565b60405180910390f35b61053f600480360381019061053a919061252c565b610f7b565b005b34801561054d57600080fd5b50610568600480360381019061056391906123f4565b611152565b005b34801561057657600080fd5b50610591600480360381019061058c9190612379565b611168565b005b34801561059f57600080fd5b506105ba60048036038101906105b5919061252c565b6111ca565b6040516105c79190612ab9565b60405180910390f35b3480156105dc57600080fd5b506105e5611246565b6040516105f29190612d7b565b60405180910390f35b34801561060757600080fd5b50610622600480360381019061061d91906122ee565b61124c565b60405161062f9190612a9e565b60405180910390f35b34801561064457600080fd5b5061065f600480360381019061065a91906122c5565b6112e0565b005b600b60009054906101000a900460ff1681565b60007f80ac58cd000000000000000000000000000000000000000000000000000000007bffffffffffffffffffffffffffffffffffffffffffffffffffffffff1916827bffffffffffffffffffffffffffffffffffffffffffffffffffffffff1916148061073f57507f5b5e139f000000000000000000000000000000000000000000000000000000007bffffffffffffffffffffffffffffffffffffffffffffffffffffffff1916827bffffffffffffffffffffffffffffffffffffffffffffffffffffffff1916145b8061074f575061074e826113d8565b5b9050919050565b6060600080546107659061302c565b80601f01602080910402602001604051908101604052809291908181526020018280546107919061302c565b80156107de5780601f106107b3576101008083540402835291602001916107de565b820191906000526020600020905b8154815290600101906020018083116107c157829003601f168201915b5050505050905090565b60006107f382611442565b610832576040517f08c379a000000000000000000000000000000000000000000000000000000000815260040161082990612cbb565b60405180910390fd5b6004600083815260200190815260200160002060009054906101000a900473ffffffffffffffffffffffffffffffffffffffff169050919050565b600061087882610c0f565b90508073ffffffffffffffffffffffffffffffffffffffff168373ffffffffffffffffffffffffffffffffffffffff1614156108e9576040517f08c379a00000000000000000000000000000000000000000000000000000000081526004016108e090612d1b565b60405180910390fd5b8073ffffffffffffffffffffffffffffffffffffffff166109086114ae565b73ffffffffffffffffffffffffffffffffffffffff1614806109375750610936816109316114ae565b61124c565b5b610976576040517f08c379a000000000000000000000000000000000000000000000000000000000815260040161096d90612c3b565b60405180910390fd5b61098083836114b6565b505050565b600e6020528060005260406000206000915090505481565b60085481565b6109ab6114ae565b73ffffffffffffffffffffffffffffffffffffffff166109c9610e2d565b73ffffffffffffffffffffffffffffffffffffffff1614610a1f576040517f08c379a0000000000000000000000000000000000000000000000000000000008152600401610a1690612cfb565b60405180910390fd5b80600b60006101000a81548160ff02191690831515021790555050565b610a4d610a476114ae565b8261156f565b610a8c576040517f08c379a0000000000000000000000000000000000000000000000000000000008152600401610a8390612d3b565b60405180910390fd5b610a9783838361164d565b505050565b610aa46114ae565b73ffffffffffffffffffffffffffffffffffffffff16610ac2610e2d565b73ffffffffffffffffffffffffffffffffffffffff1614610b18576040517f08c379a0000000000000000000000000000000000000000000000000000000008152600401610b0f90612cfb565b60405180910390fd5b6000600d60009054906101000a900473ffffffffffffffffffffffffffffffffffffffff1673ffffffffffffffffffffffffffffffffffffffff1647604051610b6090612a07565b60006040518083038185875af1925050503d8060008114610b9d576040519150601f19603f3d011682016040523d82523d6000602084013e610ba2565b606091505b5050905080610be6576040517f08c379a0000000000000000000000000000000000000000000000000000000008152600401610bdd90612b9b565b60405180910390fd5b50565b610c0483838360405180602001604052806000815250611168565b505050565b600a5481565b6000806002600084815260200190815260200160002060009054906101000a900473ffffffffffffffffffffffffffffffffffffffff169050600073ffffffffffffffffffffffffffffffffffffffff168173ffffffffffffffffffffffffffffffffffffffff161415610cb8576040517f08c379a0000000000000000000000000000000000000000000000000000000008152600401610caf90612c7b565b60405180910390fd5b80915050919050565b60075481565b60008073ffffffffffffffffffffffffffffffffffffffff168273ffffffffffffffffffffffffffffffffffffffff161415610d38576040517f08c379a0000000000000000000000000000000000000000000000000000000008152600401610d2f90612c5b565b60405180910390fd5b600360008373ffffffffffffffffffffffffffffffffffffffff1673ffffffffffffffffffffffffffffffffffffffff168152602001908152602001600020549050919050565b610d876114ae565b73ffffffffffffffffffffffffffffffffffffffff16610da5610e2d565b73ffffffffffffffffffffffffffffffffffffffff1614610dfb576040517f08c379a0000000000000000000000000000000000000000000000000000000008152600401610df290612cfb565b60405180910390fd5b610e0560006118b4565b565b600d60009054906101000a900473ffffffffffffffffffffffffffffffffffffffff1681565b6000600660009054906101000a900473ffffffffffffffffffffffffffffffffffffffff16905090565b610e5f6114ae565b73ffffffffffffffffffffffffffffffffffffffff16610e7d610e2d565b73ffffffffffffffffffffffffffffffffffffffff1614610ed3576040517f08c379a0000000000000000000000000000000000000000000000000000000008152600401610eca90612cfb565b60405180910390fd5b8181600c9190610ee4929190612107565b505050565b606060018054610ef89061302c565b80601f0160208091040260200160405190810160405280929190818152602001828054610f249061302c565b8015610f715780601f10610f4657610100808354040283529160200191610f71565b820191906000526020600020905b815481529060010190602001808311610f5457829003601f168201915b5050505050905090565b600b60009054906101000a900460ff16610fca576040517f08c379a0000000000000000000000000000000000000000000000000000000008152600401610fc190612b1b565b60405180910390fd5b60075481610fd89190612ed6565b3414611019576040517f08c379a000000000000000000000000000000000000000000000000000000000815260040161101090612adb565b60405180910390fd5b6009548160085461102a9190612e4f565b111561106b576040517f08c379a000000000000000000000000000000000000000000000000000000000815260040161106290612d5b565b60405180910390fd5b600a5481600e60003373ffffffffffffffffffffffffffffffffffffffff1673ffffffffffffffffffffffffffffffffffffffff168152602001908152602001600020546110b99190612e4f565b11156110fa576040517f08c379a00000000000000000000000000000000000000000000000000000000081526004016110f190612cdb565b60405180910390fd5b60005b8181101561114e57600060016008546111169190612e4f565b90506008600081548092919061112b9061308f565b919050555061113a338261197a565b5080806111469061308f565b9150506110fd565b5050565b61116461115d6114ae565b8383611998565b5050565b6111796111736114ae565b8361156f565b6111b8576040517f08c379a00000000000000000000000000000000000000000000000000000000081526004016111af90612d3b565b60405180910390fd5b6111c484848484611b05565b50505050565b60606111d582611442565b611214576040517f08c379a000000000000000000000000000000000000000000000000000000000815260040161120b90612bfb565b60405180910390fd5b600c61121f83611b61565b6040516020016112309291906129d8565b6040516020818303038152906040529050919050565b60095481565b6000600560008473ffffffffffffffffffffffffffffffffffffffff1673ffffffffffffffffffffffffffffffffffffffff16815260200190815260200160002060008373ffffffffffffffffffffffffffffffffffffffff1673ffffffffffffffffffffffffffffffffffffffff16815260200190815260200160002060009054906101000a900460ff16905092915050565b6112e86114ae565b73ffffffffffffffffffffffffffffffffffffffff16611306610e2d565b73ffffffffffffffffffffffffffffffffffffffff161461135c576040517f08c379a000000000000000000000000000000000000000000000000000000000815260040161135390612cfb565b60405180910390fd5b600073ffffffffffffffffffffffffffffffffffffffff168173ffffffffffffffffffffffffffffffffffffffff1614156113cc576040517f08c379a00000000000000000000000000000000000000000000000000000000081526004016113c390612b3b565b60405180910390fd5b6113d5816118b4565b50565b60007f01ffc9a7000000000000000000000000000000000000000000000000000000007bffffffffffffffffffffffffffffffffffffffffffffffffffffffff1916827bffffffffffffffffffffffffffffffffffffffffffffffffffffffff1916149050919050565b60008073ffffffffffffffffffffffffffffffffffffffff166002600084815260200190815260200160002060009054906101000a900473ffffffffffffffffffffffffffffffffffffffff1673ffffffffffffffffffffffffffffffffffffffff1614159050919050565b600033905090565b816004600083815260200190815260200160002060006101000a81548173ffffffffffffffffffffffffffffffffffffffff021916908373ffffffffffffffffffffffffffffffffffffffff160217905550808273ffffffffffffffffffffffffffffffffffffffff1661152983610c0f565b73ffffffffffffffffffffffffffffffffffffffff167f8c5be1e5ebec7d5bd14f71427d1e84f3dd0314c0f7b2291e5b200ac8c7c3b92560405160405180910390a45050565b600061157a82611442565b6115b9576040517f08c379a00000000000000000000000000000000000000000000000000000000081526004016115b090612c1b565b60405180910390fd5b60006115c483610c0f565b90508073ffffffffffffffffffffffffffffffffffffffff168473ffffffffffffffffffffffffffffffffffffffff1614806116065750611605818561124c565b5b8061164457508373ffffffffffffffffffffffffffffffffffffffff1661162c846107e8565b73ffffffffffffffffffffffffffffffffffffffff16145b91505092915050565b8273ffffffffffffffffffffffffffffffffffffffff1661166d82610c0f565b73ffffffffffffffffffffffffffffffffffffffff16146116c3576040517f08c379a00000000000000000000000000000000000000000000000000000000081526004016116ba90612b5b565b60405180910390fd5b600073ffffffffffffffffffffffffffffffffffffffff168273ffffffffffffffffffffffffffffffffffffffff161415611733576040517f08c379a000000000000000000000000000000000000000000000000000000000815260040161172a90612bbb565b60405180910390fd5b61173e838383611d0e565b6117496000826114b6565b6001600360008573ffffffffffffffffffffffffffffffffffffffff1673ffffffffffffffffffffffffffffffffffffffff16815260200190815260200160002060008282546117999190612f30565b925050819055506001600360008473ffffffffffffffffffffffffffffffffffffffff1673ffffffffffffffffffffffffffffffffffffffff16815260200190815260200160002060008282546117f09190612e4f565b92505081905550816002600083815260200190815260200160002060006101000a81548173ffffffffffffffffffffffffffffffffffffffff021916908373ffffffffffffffffffffffffffffffffffffffff160217905550808273ffffffffffffffffffffffffffffffffffffffff168473ffffffffffffffffffffffffffffffffffffffff167fddf252ad1be2c89b69c2b068fc378daa952ba7f163c4a11628f55a4df523b3ef60405160405180910390a46118af838383611d13565b505050565b6000600660009054906101000a900473ffffffffffffffffffffffffffffffffffffffff16905081600660006101000a81548173ffffffffffffffffffffffffffffffffffffffff021916908373ffffffffffffffffffffffffffffffffffffffff1602179055508173ffffffffffffffffffffffffffffffffffffffff168173ffffffffffffffffffffffffffffffffffffffff167f8be0079c531659141344cd1fd0a4f28419497f9722a3daafe3b4186f6b6457e060405160405180910390a35050565b611994828260405180602001604052806000815250611d18565b5050565b8173ffffffffffffffffffffffffffffffffffffffff168373ffffffffffffffffffffffffffffffffffffffff161415611a07576040517f08c379a00000000000000000000000000000000000000000000000000000000081526004016119fe90612bdb565b60405180910390fd5b80600560008573ffffffffffffffffffffffffffffffffffffffff1673ffffffffffffffffffffffffffffffffffffffff16815260200190815260200160002060008473ffffffffffffffffffffffffffffffffffffffff1673ffffffffffffffffffffffffffffffffffffffff16815260200190815260200160002060006101000a81548160ff0219169083151502179055508173ffffffffffffffffffffffffffffffffffffffff168373ffffffffffffffffffffffffffffffffffffffff167f17307eab39ab6107e8899845ad3d59bd9653f200f220920489ca2b5937696c3183604051611af89190612a9e565b60405180910390a3505050565b611b1084848461164d565b611b1c84848484611d73565b611b5b576040517f08c379a0000000000000000000000000000000000000000000000000000000008152600401611b5290612afb565b60405180910390fd5b50505050565b60606000821415611ba9576040518060400160405280600181526020017f30000000000000000000000000000000000000000000000000000000000000008152509050611d09565b600082905060005b60008214611bdb578080611bc49061308f565b915050600a82611bd49190612ea5565b9150611bb1565b60008167ffffffffffffffff811115611c1d577f4e487b7100000000000000000000000000000000000000000000000000000000600052604160045260246000fd5b6040519080825280601f01601f191660200182016040528015611c4f5781602001600182028036833780820191505090505b5090505b60008514611d0257600182611c689190612f30565b9150600a85611c7791906130d8565b6030611c839190612e4f565b60f81b818381518110611cbf577f4e487b7100000000000000000000000000000000000000000000000000000000600052603260045260246000fd5b60200101907effffffffffffffffffffffffffffffffffffffffffffffffffffffffffffff1916908160001a905350600a85611cfb9190612ea5565b9450611c53565b8093505050505b919050565b505050565b505050565b611d228383611f0a565b611d2f6000848484611d73565b611d6e576040517f08c379a0000000000000000000000000000000000000000000000000000000008152600401611d6590612afb565b60405180910390fd5b505050565b6000611d948473ffffffffffffffffffffffffffffffffffffffff166120e4565b15611efd578373ffffffffffffffffffffffffffffffffffffffff1663150b7a02611dbd6114ae565b8786866040518563ffffffff1660e01b8152600401611ddf9493929190612a52565b602060405180830381600087803b158015611df957600080fd5b505af1925050508015611e2a57506040513d601f19601f82011682018060405250810190611e2791906124be565b60015b611ead573d8060008114611e5a576040519150601f19603f3d011682016040523d82523d6000602084013e611e5f565b606091505b50600081511415611ea5576040517f08c379a0000000000000000000000000000000000000000000000000000000008152600401611e9c90612afb565b60405180910390fd5b805181602001fd5b63150b7a0260e01b7bffffffffffffffffffffffffffffffffffffffffffffffffffffffff1916817bffffffffffffffffffffffffffffffffffffffffffffffffffffffff191614915050611f02565b600190505b949350505050565b600073ffffffffffffffffffffffffffffffffffffffff168273ffffffffffffffffffffffffffffffffffffffff161415611f7a576040517f08c379a0000000000000000000000000000000000000000000000000000000008152600401611f7190612c9b565b60405180910390fd5b611f8381611442565b15611fc3576040517f08c379a0000000000000000000000000000000000000000000000000000000008152600401611fba90612b7b565b60405180910390fd5b611fcf60008383611d0e565b6001600360008473ffffffffffffffffffffffffffffffffffffffff1673ffffffffffffffffffffffffffffffffffffffff168152602001908152602001600020600082825461201f9190612e4f565b92505081905550816002600083815260200190815260200160002060006101000a81548173ffffffffffffffffffffffffffffffffffffffff021916908373ffffffffffffffffffffffffffffffffffffffff160217905550808273ffffffffffffffffffffffffffffffffffffffff16600073ffffffffffffffffffffffffffffffffffffffff167fddf252ad1be2c89b69c2b068fc378daa952ba7f163c4a11628f55a4df523b3ef60405160405180910390a46120e060008383611d13565b5050565b6000808273ffffffffffffffffffffffffffffffffffffffff163b119050919050565b8280546121139061302c565b90600052602060002090601f016020900481019282612135576000855561217c565b82601f1061214e57803560ff191683800117855561217c565b8280016001018555821561217c579182015b8281111561217b578235825591602001919060010190612160565b5b509050612189919061218d565b5090565b5b808211156121a657600081600090555060010161218e565b5090565b60006121bd6121b884612dbb565b612d96565b9050828152602081018484840111156121d557600080fd5b6121e0848285612fea565b509392505050565b6000813590506121f781613701565b92915050565b60008135905061220c81613718565b92915050565b6000813590506122218161372f565b92915050565b6000815190506122368161372f565b92915050565b600082601f83011261224d57600080fd5b813561225d8482602086016121aa565b91505092915050565b60008083601f84011261227857600080fd5b8235905067ffffffffffffffff81111561229157600080fd5b6020830191508360018202830111156122a957600080fd5b9250929050565b6000813590506122bf81613746565b92915050565b6000602082840312156122d757600080fd5b60006122e5848285016121e8565b91505092915050565b6000806040838503121561230157600080fd5b600061230f858286016121e8565b9250506020612320858286016121e8565b9150509250929050565b60008060006060848603121561233f57600080fd5b600061234d868287016121e8565b935050602061235e868287016121e8565b925050604061236f868287016122b0565b9150509250925092565b6000806000806080858703121561238f57600080fd5b600061239d878288016121e8565b94505060206123ae878288016121e8565b93505060406123bf878288016122b0565b925050606085013567ffffffffffffffff8111156123dc57600080fd5b6123e88782880161223c565b91505092959194509250565b6000806040838503121561240757600080fd5b6000612415858286016121e8565b9250506020612426858286016121fd565b9150509250929050565b6000806040838503121561244357600080fd5b6000612451858286016121e8565b9250506020612462858286016122b0565b9150509250929050565b60006020828403121561247e57600080fd5b600061248c848285016121fd565b91505092915050565b6000602082840312156124a757600080fd5b60006124b584828501612212565b91505092915050565b6000602082840312156124d057600080fd5b60006124de84828501612227565b91505092915050565b600080602083850312156124fa57600080fd5b600083013567ffffffffffffffff81111561251457600080fd5b61252085828601612266565b92509250509250929050565b60006020828403121561253e57600080fd5b600061254c848285016122b0565b91505092915050565b61255e81612f76565b82525050565b61256d81612f64565b82525050565b61257c81612f88565b82525050565b600061258d82612e01565b6125978185612e17565b93506125a7818560208601612ff9565b6125b0816131c5565b840191505092915050565b60006125c682612e0c565b6125d08185612e33565b93506125e0818560208601612ff9565b6125e9816131c5565b840191505092915050565b60006125ff82612e0c565b6126098185612e44565b9350612619818560208601612ff9565b80840191505092915050565b600081546126328161302c565b61263c8186612e44565b9450600182166000811461265757600181146126685761269b565b60ff1983168652818601935061269b565b61267185612dec565b60005b8381101561269357815481890152600182019150602081019050612674565b838801955050505b50505092915050565b60006126b1601083612e33565b91506126bc826131d6565b602082019050919050565b60006126d4603283612e33565b91506126df826131ff565b604082019050919050565b60006126f7601383612e33565b91506127028261324e565b602082019050919050565b600061271a602683612e33565b915061272582613277565b604082019050919050565b600061273d602583612e33565b9150612748826132c6565b604082019050919050565b6000612760601c83612e33565b915061276b82613315565b602082019050919050565b6000612783600f83612e33565b915061278e8261333e565b602082019050919050565b60006127a6602483612e33565b91506127b182613367565b604082019050919050565b60006127c9601983612e33565b91506127d4826133b6565b602082019050919050565b60006127ec601483612e33565b91506127f7826133df565b602082019050919050565b600061280f602c83612e33565b915061281a82613408565b604082019050919050565b6000612832603883612e33565b915061283d82613457565b604082019050919050565b6000612855602a83612e33565b9150612860826134a6565b604082019050919050565b6000612878602983612e33565b9150612883826134f5565b604082019050919050565b600061289b602083612e33565b91506128a682613544565b602082019050919050565b60006128be602c83612e33565b91506128c98261356d565b604082019050919050565b60006128e1600583612e44565b91506128ec826135bc565b600582019050919050565b6000612904601183612e33565b915061290f826135e5565b602082019050919050565b6000612927602083612e33565b91506129328261360e565b602082019050919050565b600061294a602183612e33565b915061295582613637565b604082019050919050565b600061296d600083612e28565b915061297882613686565b600082019050919050565b6000612990603183612e33565b915061299b82613689565b604082019050919050565b60006129b3600883612e33565b91506129be826136d8565b602082019050919050565b6129d281612fe0565b82525050565b60006129e48285612625565b91506129f082846125f4565b91506129fb826128d4565b91508190509392505050565b6000612a1282612960565b9150819050919050565b6000602082019050612a316000830184612564565b92915050565b6000602082019050612a4c6000830184612555565b92915050565b6000608082019050612a676000830187612564565b612a746020830186612564565b612a8160408301856129c9565b8181036060830152612a938184612582565b905095945050505050565b6000602082019050612ab36000830184612573565b92915050565b60006020820190508181036000830152612ad381846125bb565b905092915050565b60006020820190508181036000830152612af4816126a4565b9050919050565b60006020820190508181036000830152612b14816126c7565b9050919050565b60006020820190508181036000830152612b34816126ea565b9050919050565b60006020820190508181036000830152612b548161270d565b9050919050565b60006020820190508181036000830152612b7481612730565b9050919050565b60006020820190508181036000830152612b9481612753565b9050919050565b60006020820190508181036000830152612bb481612776565b9050919050565b60006020820190508181036000830152612bd481612799565b9050919050565b60006020820190508181036000830152612bf4816127bc565b9050919050565b60006020820190508181036000830152612c14816127df565b9050919050565b60006020820190508181036000830152612c3481612802565b9050919050565b60006020820190508181036000830152612c5481612825565b9050919050565b60006020820190508181036000830152612c7481612848565b9050919050565b60006020820190508181036000830152612c948161286b565b9050919050565b60006020820190508181036000830152612cb48161288e565b9050919050565b60006020820190508181036000830152612cd4816128b1565b9050919050565b60006020820190508181036000830152612cf4816128f7565b9050919050565b60006020820190508181036000830152612d148161291a565b9050919050565b60006020820190508181036000830152612d348161293d565b9050919050565b60006020820190508181036000830152612d5481612983565b9050919050565b60006020820190508181036000830152612d74816129a6565b9050919050565b6000602082019050612d9060008301846129c9565b92915050565b6000612da0612db1565b9050612dac828261305e565b919050565b6000604051905090565b600067ffffffffffffffff821115612dd657612dd5613196565b5b612ddf826131c5565b9050602081019050919050565b60008190508160005260206000209050919050565b600081519050919050565b600081519050919050565b600082825260208201905092915050565b600081905092915050565b600082825260208201905092915050565b600081905092915050565b6000612e5a82612fe0565b9150612e6583612fe0565b9250827fffffffffffffffffffffffffffffffffffffffffffffffffffffffffffffffff03821115612e9a57612e99613109565b5b828201905092915050565b6000612eb082612fe0565b9150612ebb83612fe0565b925082612ecb57612eca613138565b5b828204905092915050565b6000612ee182612fe0565b9150612eec83612fe0565b9250817fffffffffffffffffffffffffffffffffffffffffffffffffffffffffffffffff0483118215151615612f2557612f24613109565b5b828202905092915050565b6000612f3b82612fe0565b9150612f4683612fe0565b925082821015612f5957612f58613109565b5b828203905092915050565b6000612f6f82612fc0565b9050919050565b6000612f8182612fc0565b9050919050565b60008115159050919050565b60007fffffffff0000000000000000000000000000000000000000000000000000000082169050919050565b600073ffffffffffffffffffffffffffffffffffffffff82169050919050565b6000819050919050565b82818337600083830152505050565b60005b83811015613017578082015181840152602081019050612ffc565b83811115613026576000848401525b50505050565b6000600282049050600182168061304457607f821691505b6020821081141561305857613057613167565b5b50919050565b613067826131c5565b810181811067ffffffffffffffff8211171561308657613085613196565b5b80604052505050565b600061309a82612fe0565b91507fffffffffffffffffffffffffffffffffffffffffffffffffffffffffffffffff8214156130cd576130cc613109565b5b600182019050919050565b60006130e382612fe0565b91506130ee83612fe0565b9250826130fe576130fd613138565b5b828206905092915050565b7f4e487b7100000000000000000000000000000000000000000000000000000000600052601160045260246000fd5b7f4e487b7100000000000000000000000000000000000000000000000000000000600052601260045260246000fd5b7f4e487b7100000000000000000000000000000000000000000000000000000000600052602260045260246000fd5b7f4e487b7100000000000000000000000000000000000000000000000000000000600052604160045260246000fd5b6000601f19601f8301169050919050565b7f77726f6e67206d696e742076616c756500000000000000000000000000000000600082015250565b7f4552433732313a207472616e7366657220746f206e6f6e20455243373231526560008201527f63656976657220696d706c656d656e7465720000000000000000000000000000602082015250565b7f6d696e74696e67206e6f7420656e61626c656400000000000000000000000000600082015250565b7f4f776e61626c653a206e6577206f776e657220697320746865207a65726f206160008201527f6464726573730000000000000000000000000000000000000000000000000000602082015250565b7f4552433732313a207472616e736665722066726f6d20696e636f72726563742060008201527f6f776e6572000000000000000000000000000000000000000000000000000000602082015250565b7f4552433732313a20746f6b656e20616c7265616479206d696e74656400000000600082015250565b7f5769746864726177206661696c65640000000000000000000000000000000000600082015250565b7f4552433732313a207472616e7366657220746f20746865207a65726f2061646460008201527f7265737300000000000000000000000000000000000000000000000000000000602082015250565b7f4552433732313a20617070726f766520746f2063616c6c657200000000000000600082015250565b7f546f6b656e20646f6573206e6f74206578697374000000000000000000000000600082015250565b7f4552433732313a206f70657261746f7220717565727920666f72206e6f6e657860008201527f697374656e7420746f6b656e0000000000000000000000000000000000000000602082015250565b7f4552433732313a20617070726f76652063616c6c6572206973206e6f74206f7760008201527f6e6572206e6f7220617070726f76656420666f7220616c6c0000000000000000602082015250565b7f4552433732313a2062616c616e636520717565727920666f7220746865207a6560008201527f726f206164647265737300000000000000000000000000000000000000000000602082015250565b7f4552433732313a206f776e657220717565727920666f72206e6f6e657869737460008201527f656e7420746f6b656e0000000000000000000000000000000000000000000000602082015250565b7f4552433732313a206d696e7420746f20746865207a65726f2061646472657373600082015250565b7f4552433732313a20617070726f76656420717565727920666f72206e6f6e657860008201527f697374656e7420746f6b656e0000000000000000000000000000000000000000602082015250565b7f2e6a736f6e000000000000000000000000000000000000000000000000000000600082015250565b7f657863656564206d61782077616c6c6574000000000000000000000000000000600082015250565b7f4f776e61626c653a2063616c6c6572206973206e6f7420746865206f776e6572600082015250565b7f4552433732313a20617070726f76616c20746f2063757272656e74206f776e6560008201527f7200000000000000000000000000000000000000000000000000000000000000602082015250565b50565b7f4552433732313a207472616e736665722063616c6c6572206973206e6f74206f60008201527f776e6572206e6f7220617070726f766564000000000000000000000000000000602082015250565b7f536f6c64206f7574000000000000000000000000000000000000000000000000600082015250565b61370a81612f64565b811461371557600080fd5b50565b61372181612f88565b811461372c57600080fd5b50565b61373881612f94565b811461374357600080fd5b50565b61374f81612fe0565b811461375a57600080fd5b5056fea2646970667358221220fb7eea619a88f4ca8812e6d44ecd1b1d0ce4487a8eb33102269c32ee51d5204164736f6c63430008040033",
  "linkReferences": {},
  "deployedLinkReferences": {}
}